{
  "_format": "hh-sol-artifact-1",
  "contractName": "HodlTokens",
  "sourceName": "contracts/HodlTokens.sol",
  "abi": [
    {
      "inputs": [
        {
          "internalType": "address",
          "name": "_owner",
          "type": "address"
        }
      ],
      "stateMutability": "nonpayable",
      "type": "constructor"
    },
    {
      "anonymous": false,
      "inputs": [],
      "name": "FeesClaimed",
      "type": "event"
    },
    {
      "anonymous": false,
      "inputs": [
        {
          "indexed": true,
          "internalType": "address",
          "name": "hodler",
          "type": "address"
        },
        {
          "indexed": false,
          "internalType": "address",
          "name": "token",
          "type": "address"
        },
        {
          "indexed": false,
          "internalType": "uint256",
          "name": "amount",
          "type": "uint256"
        },
        {
          "indexed": false,
          "internalType": "uint256",
          "name": "unlockTime",
          "type": "uint256"
        }
      ],
      "name": "Hodl",
      "type": "event"
    },
    {
      "anonymous": false,
      "inputs": [
        {
          "indexed": true,
          "internalType": "address",
          "name": "hodler",
          "type": "address"
        },
        {
          "indexed": false,
          "internalType": "address",
          "name": "token",
          "type": "address"
        },
        {
          "indexed": false,
          "internalType": "uint256",
          "name": "amount",
          "type": "uint256"
        },
        {
          "indexed": false,
          "internalType": "uint256",
          "name": "timediff",
          "type": "uint256"
        }
      ],
      "name": "PanicWithdraw",
      "type": "event"
    },
    {
      "anonymous": false,
      "inputs": [
        {
          "indexed": true,
          "internalType": "address",
          "name": "hodler",
          "type": "address"
        },
        {
          "indexed": false,
          "internalType": "address",
          "name": "token",
          "type": "address"
        },
        {
          "indexed": false,
          "internalType": "uint256",
          "name": "amount",
          "type": "uint256"
        }
      ],
      "name": "Withdrawal",
      "type": "event"
    },
    {
      "inputs": [
        {
          "internalType": "address[]",
          "name": "tokenList",
          "type": "address[]"
        }
      ],
      "name": "claimFees",
      "outputs": [],
      "stateMutability": "nonpayable",
      "type": "function"
    },
    {
      "inputs": [
        {
          "internalType": "address",
          "name": "token",
          "type": "address"
        },
        {
          "internalType": "uint256",
          "name": "amount",
          "type": "uint256"
        },
        {
          "internalType": "uint256",
          "name": "unlockTime",
          "type": "uint256"
        }
      ],
      "name": "hodlDeposit",
      "outputs": [],
      "stateMutability": "nonpayable",
      "type": "function"
    },
    {
      "inputs": [
        {
          "internalType": "address",
          "name": "",
          "type": "address"
        }
      ],
      "name": "hodlers",
      "outputs": [
        {
          "internalType": "address",
          "name": "hodlerAddress",
          "type": "address"
        }
      ],
      "stateMutability": "view",
      "type": "function"
    },
    {
      "inputs": [],
      "name": "owner",
      "outputs": [
        {
          "internalType": "address",
          "name": "",
          "type": "address"
        }
      ],
      "stateMutability": "view",
      "type": "function"
    },
    {
      "inputs": [
        {
          "internalType": "address",
          "name": "token",
          "type": "address"
        }
      ],
      "name": "panicWithdraw",
      "outputs": [],
      "stateMutability": "nonpayable",
      "type": "function"
    },
    {
      "inputs": [
        {
          "internalType": "address",
          "name": "token",
          "type": "address"
        }
      ],
      "name": "withdraw",
      "outputs": [],
      "stateMutability": "nonpayable",
      "type": "function"
    }
  ],
  "bytecode": "0x6080604052600f60015534801561001557600080fd5b506040516108863803806108868339818101604052602081101561003857600080fd5b5051600080546001600160a01b039092166001600160a01b031990921691909117905561081c8061006a6000396000f3fe608060405234801561001057600080fd5b50600436106100625760003560e01c80630949083b1461006757806332c58e591461008f5780634a3f17e7146100c157806351cff8d914610103578063725acc6b146101295780638da5cb5b146101cc575b600080fd5b61008d6004803603602081101561007d57600080fd5b50356001600160a01b03166101d4565b005b61008d600480360360608110156100a557600080fd5b506001600160a01b038135169060208101359060400135610319565b6100e7600480360360208110156100d757600080fd5b50356001600160a01b0316610453565b604080516001600160a01b039092168252519081900360200190f35b61008d6004803603602081101561011957600080fd5b50356001600160a01b031661046e565b61008d6004803603602081101561013f57600080fd5b81019060208101813564010000000081111561015a57600080fd5b82018360208201111561016c57600080fd5b8035906020019184602083028401116401000000008311171561018e57600080fd5b9190808060200260200160405190810160405280939291908181526020018383602002808284376000920191909152509295506105c6945050505050565b6100e76107b2565b33600081815260026020818152604080842080546001600160a01b03191686178155600180546001600160a01b0389811680895283850187528589208054908a90558954909216895296865284882087895290920185528387206064830490910290819055835163a9059cbb60e01b81526004810198909852908190036024880181905292519196909592949363a9059cbb9360448084019492938390030190829087803b15801561028557600080fd5b505af1158015610299573d6000803e3d6000fd5b505050506040513d60208110156102af57600080fd5b50506001600160a01b0384166000818152600185016020908152604091829020600201548251938452908301849052429003828201525133917f4ac88631be4f499653ed7b66b6f8e58dfc443de552029ad793891daf8ffc5ae7919081900360600190a250505050565b33600081815260026020818152604080842080546001600160a01b03199081168717825582516060810184528981526001600160a01b038b81168287018181528387018c8152828b5260018088018a52888c20955186559151918501805490961691909316179093555195019490945581516323b872dd60e01b81526004810196909652306024870152604486018890529051909492936323b872dd936064808201949392918390030190829087803b1580156103d557600080fd5b505af11580156103e9573d6000803e3d6000fd5b505050506040513d60208110156103ff57600080fd5b5050604080516001600160a01b038616815260208101859052808201849052905133917f58ad07e04242041e735af971af7db7399c4deb8fae2551daa6bd2a86be3cf1bd919081900360600190a250505050565b6002602052600090815260409020546001600160a01b031681565b3360009081526002602081815260408084206001600160a01b038616855260018101909252909220015442116104eb576040805162461bcd60e51b815260206004820152601c60248201527f556e6c6f636b2074696d65206e6f742072656163686564207965742e00000000604482015290519081900360640190fd5b6001600160a01b03821660008181526001830160209081526040808320805490849055815163a9059cbb60e01b815233600482015260248101829052915190949363a9059cbb93604480850194919392918390030190829087803b15801561055257600080fd5b505af1158015610566573d6000803e3d6000fd5b505050506040513d602081101561057c57600080fd5b5050604080516001600160a01b038516815260208101839052815133927f2717ead6b9200dd235aad468c9809ea400fe33ac69b5bfaa6d3e90fc922b6398928290030190a2505050565b6000546001600160a01b0316331461060f5760405162461bcd60e51b81526004018080602001828103825260258152602001806107c26025913960400191505060405180910390fd5b60005b815181101561078557600080546001600160a01b031681526002602052604081208351600190910190829085908590811061064957fe5b60200260200101516001600160a01b03166001600160a01b03168152602001908152602001600020600001549050600081111561077c5782828151811061068c57fe5b60200260200101516001600160a01b031663a9059cbb60008054906101000a90046001600160a01b0316836040518363ffffffff1660e01b815260040180836001600160a01b0316815260200182815260200192505050602060405180830381600087803b1580156106fd57600080fd5b505af1158015610711573d6000803e3d6000fd5b505050506040513d602081101561072757600080fd5b5050600080546001600160a01b031681526002602052604081208451600190910190829086908690811061075757fe5b6020908102919091018101516001600160a01b03168252810191909152604001600020555b50600101610612565b506040517fd8f21fccc983db3b872d2dc4c2ac57ac1e5b96be117c48626cac718ee33ed9b990600090a150565b6000546001600160a01b03168156fe4f6e6c7920617661696c61626c6520746f2074686520636f6e7472616374206f776e65722ea2646970667358221220677c385e8ff524c8aa43a4359cf3893994830e043d87d0002e357df5e062244964736f6c63430007060033",
  "linkReferences": {},
  "deployedLinkReferences": {}
}