{
  "_format": "hh-sol-artifact-1",
  "contractName": "TokenLocker",
  "sourceName": "contracts/TokenLocker.sol",
  "abi": [
    {
      "inputs": [
        {
          "internalType": "address",
          "name": "_owner",
          "type": "address"
        }
      ],
      "stateMutability": "nonpayable",
      "type": "constructor"
    },
    {
      "anonymous": false,
      "inputs": [],
      "name": "FeesClaimed",
      "type": "event"
    },
    {
      "anonymous": false,
      "inputs": [
        {
          "indexed": true,
          "internalType": "address",
          "name": "hodler",
          "type": "address"
        },
        {
          "indexed": false,
          "internalType": "address",
          "name": "token",
          "type": "address"
        },
        {
          "indexed": false,
          "internalType": "uint256",
          "name": "amount",
          "type": "uint256"
        },
        {
          "indexed": false,
          "internalType": "uint256",
          "name": "unlockTime",
          "type": "uint256"
        },
        {
          "indexed": false,
          "internalType": "uint256",
          "name": "penaltyFee",
          "type": "uint256"
        }
      ],
      "name": "Hodl",
      "type": "event"
    },
    {
      "anonymous": false,
      "inputs": [
        {
          "indexed": true,
          "internalType": "address",
          "name": "hodler",
          "type": "address"
        },
        {
          "indexed": false,
          "internalType": "address",
          "name": "token",
          "type": "address"
        },
        {
          "indexed": false,
          "internalType": "uint256",
          "name": "amount",
          "type": "uint256"
        },
        {
          "indexed": false,
          "internalType": "uint256",
          "name": "unlockTime",
          "type": "uint256"
        }
      ],
      "name": "PanicWithdraw",
      "type": "event"
    },
    {
      "anonymous": false,
      "inputs": [
        {
          "indexed": true,
          "internalType": "address",
          "name": "hodler",
          "type": "address"
        },
        {
          "indexed": false,
          "internalType": "address",
          "name": "token",
          "type": "address"
        },
        {
          "indexed": false,
          "internalType": "uint256",
          "name": "amount",
          "type": "uint256"
        }
      ],
      "name": "Withdrawal",
      "type": "event"
    },
    {
      "inputs": [
        {
          "internalType": "address",
          "name": "token",
          "type": "address"
        }
      ],
      "name": "claimTokenFees",
      "outputs": [],
      "stateMutability": "nonpayable",
      "type": "function"
    },
    {
      "inputs": [
        {
          "internalType": "address[]",
          "name": "tokenList",
          "type": "address[]"
        }
      ],
      "name": "claimTokenListFees",
      "outputs": [],
      "stateMutability": "nonpayable",
      "type": "function"
    },
    {
      "inputs": [
        {
          "internalType": "address",
          "name": "token",
          "type": "address"
        },
        {
          "internalType": "uint256",
          "name": "amount",
          "type": "uint256"
        },
        {
          "internalType": "uint256",
          "name": "unlockTime",
          "type": "uint256"
        },
        {
          "internalType": "uint256",
          "name": "penaltyFee",
          "type": "uint256"
        }
      ],
      "name": "hodlDeposit",
      "outputs": [],
      "stateMutability": "nonpayable",
      "type": "function"
    },
    {
      "inputs": [
        {
          "internalType": "address",
          "name": "",
          "type": "address"
        }
      ],
      "name": "hodlers",
      "outputs": [
        {
          "internalType": "address",
          "name": "hodlerAddress",
          "type": "address"
        }
      ],
      "stateMutability": "view",
      "type": "function"
    },
    {
      "inputs": [],
      "name": "owner",
      "outputs": [
        {
          "internalType": "address",
          "name": "",
          "type": "address"
        }
      ],
      "stateMutability": "view",
      "type": "function"
    },
    {
      "inputs": [
        {
          "internalType": "address",
          "name": "token",
          "type": "address"
        }
      ],
      "name": "panicWithdraw",
      "outputs": [],
      "stateMutability": "nonpayable",
      "type": "function"
    },
    {
      "inputs": [
        {
          "internalType": "address",
          "name": "token",
          "type": "address"
        }
      ],
      "name": "withdraw",
      "outputs": [],
      "stateMutability": "nonpayable",
      "type": "function"
    }
  ],
  "bytecode": "0x608060405234801561001057600080fd5b50604051610d00380380610d0083398101604081905261002f91610054565b600080546001600160a01b0319166001600160a01b0392909216919091179055610082565b600060208284031215610065578081fd5b81516001600160a01b038116811461007b578182fd5b9392505050565b610c6f806100916000396000f3fe608060405234801561001057600080fd5b506004361061007d5760003560e01c80638da5cb5b1161005b5780638da5cb5b146100ef578063da9f373b14610102578063f8f91e7414610115578063fa773127146101285761007d565b80630949083b146100825780634a3f17e71461009757806351cff8d9146100dc575b600080fd5b6100956100903660046109d5565b61013b565b005b6100c06100a53660046109d5565b6001602052600090815260409020546001600160a01b031681565b6040516001600160a01b03909116815260200160405180910390f35b6100956100ea3660046109d5565b6102fc565b6000546100c0906001600160a01b031681565b610095610110366004610a2e565b610483565b6100956101233660046109d5565b610693565b6100956101363660046109f6565b61080b565b336000818152600160205260409020805490916001600160a01b039091161461017f5760405162461bcd60e51b815260040161017690610b5a565b60405180910390fd5b6001600160a01b03821660009081526001820160205260408120600381015490546101ac90606490610b9c565b6101b69190610bbc565b6001600160a01b0384166000908152600184016020526040812054919250906101e0908390610bdb565b6001600160a01b038581166000818152600187810160209081526040808420849055835490951683528181528483208484529091019052829020859055905163a9059cbb60e01b8152336004820152602481018390529192509063a9059cbb90604401602060405180830381600087803b15801561025d57600080fd5b505af1158015610271573d6000803e3d6000fd5b505050506040513d601f19601f820116820180604052508101906102959190610af5565b506001600160a01b03841660008181526001850160209081526040918290206002015482519384529083018490529082015233907f4ac88631be4f499653ed7b66b6f8e58dfc443de552029ad793891daf8ffc5ae79060600160405180910390a250505050565b336000818152600160205260409020805490916001600160a01b03909116146103375760405162461bcd60e51b815260040161017690610b5a565b6001600160a01b038216600090815260018201602052604090206002015442116103a35760405162461bcd60e51b815260206004820152601c60248201527f556e6c6f636b2074696d65206e6f742072656163686564207965742e000000006044820152606401610176565b6001600160a01b038216600081815260018301602052604080822080549290555163a9059cbb60e01b81523360048201526024810182905290919063a9059cbb90604401602060405180830381600087803b15801561040157600080fd5b505af1158015610415573d6000803e3d6000fd5b505050506040513d601f19601f820116820180604052508101906104399190610af5565b50604080516001600160a01b03851681526020810183905233917f2717ead6b9200dd235aad468c9809ea400fe33ac69b5bfaa6d3e90fc922b6398910160405180910390a2505050565b6000546001600160a01b031633146104ad5760405162461bcd60e51b815260040161017690610b15565b60005b815181101561066657600080546001600160a01b031681526001602081905260408220845191019082908590859081106104fa57634e487b7160e01b600052603260045260246000fd5b60200260200101516001600160a01b03166001600160a01b03168152602001908152602001600020600001549050600081111561065357600080546001600160a01b0316815260016020819052604082208551910190829086908690811061057257634e487b7160e01b600052603260045260246000fd5b60200260200101516001600160a01b03166001600160a01b03168152602001908152602001600020600001819055508282815181106105c157634e487b7160e01b600052603260045260246000fd5b602090810291909101015160005460405163a9059cbb60e01b81526001600160a01b0391821660048201526024810184905291169063a9059cbb90604401602060405180830381600087803b15801561061957600080fd5b505af115801561062d573d6000803e3d6000fd5b505050506040513d601f19601f820116820180604052508101906106519190610af5565b505b508061065e81610bf2565b9150506104b0565b506040517fd8f21fccc983db3b872d2dc4c2ac57ac1e5b96be117c48626cac718ee33ed9b990600090a150565b6000546001600160a01b031633146106bd5760405162461bcd60e51b815260040161017690610b15565b600080546001600160a01b0390811682526001602081815260408085209386168552929091019052902054806107355760405162461bcd60e51b815260206004820152601f60248201527f4e6f206665657320617661696c61626c6520666f7220636c61696d696e672e006044820152606401610176565b600080546001600160a01b03908116825260016020818152604080852087851680875293019091528084208490559254925163a9059cbb60e01b8152929091166004830152602482018390529063a9059cbb90604401602060405180830381600087803b1580156107a557600080fd5b505af11580156107b9573d6000803e3d6000fd5b505050506040513d601f19601f820116820180604052508101906107dd9190610af5565b506040517fd8f21fccc983db3b872d2dc4c2ac57ac1e5b96be117c48626cac718ee33ed9b990600090a15050565b600a81101561085c5760405162461bcd60e51b815260206004820152601a60248201527f4d696e696d616c2070656e616c7479206665652069732031302e0000000000006044820152606401610176565b33600081815260016020818152604080842080546001600160a01b03199081168717825582516080810184528a81526001600160a01b038c81168287018181528387018d8152606085018d8152838c52878b019099529987902093518455519783018054909416979091169690961790915594516002860155915160039094019390935591516323b872dd60e01b815260048101939093523060248401526044830186905290916323b872dd90606401602060405180830381600087803b15801561092657600080fd5b505af115801561093a573d6000803e3d6000fd5b505050506040513d601f19601f8201168201806040525081019061095e9190610af5565b50604080516001600160a01b0387168152602081018690529081018490526060810183905233907f8e292bbb20ea0ff3a379c6aa7bf5c873d3894e36b8769432c354022b966af65b9060800160405180910390a25050505050565b80356001600160a01b03811681146109d057600080fd5b919050565b6000602082840312156109e6578081fd5b6109ef826109b9565b9392505050565b60008060008060808587031215610a0b578283fd5b610a14856109b9565b966020860135965060408601359560600135945092505050565b60006020808385031215610a40578182fd5b823567ffffffffffffffff80821115610a57578384fd5b818501915085601f830112610a6a578384fd5b813581811115610a7c57610a7c610c23565b8060051b604051601f19603f83011681018181108582111715610aa157610aa1610c23565b604052828152858101935084860182860187018a1015610abf578788fd5b8795505b83861015610ae857610ad4816109b9565b855260019590950194938601938601610ac3565b5098975050505050505050565b600060208284031215610b06578081fd5b815180151581146109ef578182fd5b60208082526025908201527f4f6e6c7920617661696c61626c6520746f2074686520636f6e7472616374206f6040820152643bb732b91760d91b606082015260800190565b60208082526022908201527f4f6e6c7920617661696c61626c6520746f2074686520746f6b656e206f776e65604082015261391760f11b606082015260800190565b600082610bb757634e487b7160e01b81526012600452602481fd5b500490565b6000816000190483118215151615610bd657610bd6610c0d565b500290565b600082821015610bed57610bed610c0d565b500390565b6000600019821415610c0657610c06610c0d565b5060010190565b634e487b7160e01b600052601160045260246000fd5b634e487b7160e01b600052604160045260246000fdfea2646970667358221220c4ff9cd02c267a97c7767e27732d14269fd883f1486fe35faff0fa1d81764dd164736f6c63430008030033",
  "linkReferences": {},
  "deployedLinkReferences": {}
}