{
  "_format": "hh-sol-artifact-1",
  "contractName": "TokenLocker",
  "sourceName": "contracts/TokenLocker.sol",
  "abi": [
    {
      "inputs": [
        {
          "internalType": "address",
          "name": "_owner",
          "type": "address"
        }
      ],
      "stateMutability": "nonpayable",
      "type": "constructor"
    },
    {
      "anonymous": false,
      "inputs": [],
      "name": "FeesClaimed",
      "type": "event"
    },
    {
      "anonymous": false,
      "inputs": [
        {
          "indexed": true,
          "internalType": "address",
          "name": "hodler",
          "type": "address"
        },
        {
          "indexed": false,
          "internalType": "address",
          "name": "token",
          "type": "address"
        },
        {
          "indexed": false,
          "internalType": "uint256",
          "name": "amount",
          "type": "uint256"
        },
        {
          "indexed": false,
          "internalType": "uint256",
          "name": "unlockTime",
          "type": "uint256"
        },
        {
          "indexed": false,
          "internalType": "uint256",
          "name": "penaltyFee",
          "type": "uint256"
        }
      ],
      "name": "Hodl",
      "type": "event"
    },
    {
      "anonymous": false,
      "inputs": [
        {
          "indexed": true,
          "internalType": "address",
          "name": "hodler",
          "type": "address"
        },
        {
          "indexed": false,
          "internalType": "address",
          "name": "token",
          "type": "address"
        },
        {
          "indexed": false,
          "internalType": "uint256",
          "name": "amount",
          "type": "uint256"
        },
        {
          "indexed": false,
          "internalType": "uint256",
          "name": "timediff",
          "type": "uint256"
        }
      ],
      "name": "PanicWithdraw",
      "type": "event"
    },
    {
      "anonymous": false,
      "inputs": [
        {
          "indexed": true,
          "internalType": "address",
          "name": "hodler",
          "type": "address"
        },
        {
          "indexed": false,
          "internalType": "address",
          "name": "token",
          "type": "address"
        },
        {
          "indexed": false,
          "internalType": "uint256",
          "name": "amount",
          "type": "uint256"
        }
      ],
      "name": "Withdrawal",
      "type": "event"
    },
    {
      "inputs": [
        {
          "internalType": "address[]",
          "name": "tokenList",
          "type": "address[]"
        }
      ],
      "name": "claimFees",
      "outputs": [],
      "stateMutability": "nonpayable",
      "type": "function"
    },
    {
      "inputs": [
        {
          "internalType": "address",
          "name": "token",
          "type": "address"
        },
        {
          "internalType": "uint256",
          "name": "amount",
          "type": "uint256"
        },
        {
          "internalType": "uint256",
          "name": "unlockTime",
          "type": "uint256"
        },
        {
          "internalType": "uint256",
          "name": "penaltyFee",
          "type": "uint256"
        }
      ],
      "name": "hodlDeposit",
      "outputs": [],
      "stateMutability": "nonpayable",
      "type": "function"
    },
    {
      "inputs": [
        {
          "internalType": "address",
          "name": "",
          "type": "address"
        }
      ],
      "name": "hodlers",
      "outputs": [
        {
          "internalType": "address",
          "name": "hodlerAddress",
          "type": "address"
        }
      ],
      "stateMutability": "view",
      "type": "function"
    },
    {
      "inputs": [],
      "name": "owner",
      "outputs": [
        {
          "internalType": "address",
          "name": "",
          "type": "address"
        }
      ],
      "stateMutability": "view",
      "type": "function"
    },
    {
      "inputs": [
        {
          "internalType": "address",
          "name": "token",
          "type": "address"
        }
      ],
      "name": "panicWithdraw",
      "outputs": [],
      "stateMutability": "nonpayable",
      "type": "function"
    },
    {
      "inputs": [
        {
          "internalType": "address",
          "name": "token",
          "type": "address"
        }
      ],
      "name": "withdraw",
      "outputs": [],
      "stateMutability": "nonpayable",
      "type": "function"
    }
  ],
  "bytecode": "0x608060405234801561001057600080fd5b506040516109a23803806109a28339818101604052602081101561003357600080fd5b5051600080546001600160a01b039092166001600160a01b031990921691909117905561093d806100656000396000f3fe608060405234801561001057600080fd5b50600436106100625760003560e01c80630949083b146100675780634a3f17e71461008f57806351cff8d9146100d1578063725acc6b146100f75780638da5cb5b1461019a578063fa773127146101a2575b600080fd5b61008d6004803603602081101561007d57600080fd5b50356001600160a01b03166101da565b005b6100b5600480360360208110156100a557600080fd5b50356001600160a01b031661035c565b604080516001600160a01b039092168252519081900360200190f35b61008d600480360360208110156100e757600080fd5b50356001600160a01b0316610377565b61008d6004803603602081101561010d57600080fd5b81019060208101813564010000000081111561012857600080fd5b82018360208201111561013a57600080fd5b8035906020019184602083028401116401000000008311171561015c57600080fd5b91908080602002602001604051908101604052809392919081815260200183836020028082843760009201919091525092955061051d945050505050565b6100b5610707565b61008d600480360360808110156101b857600080fd5b506001600160a01b038135169060208101359060408101359060600135610716565b336000818152600160205260409020805490916001600160a01b03909116146102345760405162461bcd60e51b81526004018080602001828103825260228152602001806108e66022913960400191505060405180910390fd5b6001600160a01b03828116600081815260018481016020908152604080842060038101548154918690558554909716855283835281852086865290930182528084206064840490960295869055805163a9059cbb60e01b81523360048201529286900360248401819052905190949363a9059cbb936044808201949392918390030190829087803b1580156102c857600080fd5b505af11580156102dc573d6000803e3d6000fd5b505050506040513d60208110156102f257600080fd5b50506001600160a01b0384166000818152600185016020908152604091829020600201548251938452908301849052429003828201525133917f4ac88631be4f499653ed7b66b6f8e58dfc443de552029ad793891daf8ffc5ae7919081900360600190a250505050565b6001602052600090815260409020546001600160a01b031681565b336000818152600160205260409020805490916001600160a01b03909116146103d15760405162461bcd60e51b81526004018080602001828103825260228152602001806108e66022913960400191505060405180910390fd5b6001600160a01b03821660009081526001820160205260409020600201544211610442576040805162461bcd60e51b815260206004820152601c60248201527f556e6c6f636b2074696d65206e6f742072656163686564207965742e00000000604482015290519081900360640190fd5b6001600160a01b03821660008181526001830160209081526040808320805490849055815163a9059cbb60e01b815233600482015260248101829052915190949363a9059cbb93604480850194919392918390030190829087803b1580156104a957600080fd5b505af11580156104bd573d6000803e3d6000fd5b505050506040513d60208110156104d357600080fd5b5050604080516001600160a01b038516815260208101839052815133927f2717ead6b9200dd235aad468c9809ea400fe33ac69b5bfaa6d3e90fc922b6398928290030190a2505050565b6000546001600160a01b031633146105665760405162461bcd60e51b81526004018080602001828103825260258152602001806108c16025913960400191505060405180910390fd5b60005b81518110156106da57600080546001600160a01b0316815260016020819052604082208451910190829085908590811061059f57fe5b60200260200101516001600160a01b03166001600160a01b0316815260200190815260200160002060000154905060008111156106d1578282815181106105e257fe5b60200260200101516001600160a01b031663a9059cbb60008054906101000a90046001600160a01b0316836040518363ffffffff1660e01b815260040180836001600160a01b0316815260200182815260200192505050602060405180830381600087803b15801561065357600080fd5b505af1158015610667573d6000803e3d6000fd5b505050506040513d602081101561067d57600080fd5b5050600080546001600160a01b031681526001602081905260408220855191019082908690869081106106ac57fe5b6020908102919091018101516001600160a01b03168252810191909152604001600020555b50600101610569565b506040517fd8f21fccc983db3b872d2dc4c2ac57ac1e5b96be117c48626cac718ee33ed9b990600090a150565b6000546001600160a01b031681565b600a81101561076c576040805162461bcd60e51b815260206004820152601a60248201527f4d696e696d616c2070656e616c7479206665652069732031302e000000000000604482015290519081900360640190fd5b33600081815260016020818152604080842080546001600160a01b03199081168717825582516080810184528a81526001600160a01b038c81168287018181528387018d8152606085018d8152838c52878b018a52888c2095518655915199850180549096169990931698909817909355516002820155945160039095019490945581516323b872dd60e01b81526004810196909652306024870152604486018990529051909492936323b872dd936064808201949392918390030190829087803b15801561083a57600080fd5b505af115801561084e573d6000803e3d6000fd5b505050506040513d602081101561086457600080fd5b5050604080516001600160a01b03871681526020810186905280820185905260608101849052905133917f8e292bbb20ea0ff3a379c6aa7bf5c873d3894e36b8769432c354022b966af65b919081900360800190a2505050505056fe4f6e6c7920617661696c61626c6520746f2074686520636f6e7472616374206f776e65722e4f6e6c7920617661696c61626c6520746f2074686520746f6b656e206f776e65722ea264697066735822122017db37e034815f4b39d0c3357a29620fa92127c5ae2ac17f9820cbebb16c9eed64736f6c63430007060033",
  "linkReferences": {},
  "deployedLinkReferences": {}
}